{
  "contractName": "CoinTrader",
  "abi": [
    {
      "constant": true,
      "inputs": [],
      "name": "hello",
      "outputs": [
        {
          "internalType": "string",
          "name": "",
          "type": "string"
        }
      ],
      "payable": false,
      "stateMutability": "view",
      "type": "function"
    },
    {
      "constant": false,
      "inputs": [
        {
          "internalType": "string",
          "name": "_newString",
          "type": "string"
        }
      ],
      "name": "SetNewString",
      "outputs": [
        {
          "internalType": "bool",
          "name": "",
          "type": "bool"
        }
      ],
      "payable": false,
      "stateMutability": "nonpayable",
      "type": "function"
    }
  ],
  "bytecode": "0x60806040526040518060400160405280600a81526020017f48656c6c6f2067757973000000000000000000000000000000000000000000008152506000908051906020019061004f929190610062565b5034801561005c57600080fd5b50610107565b828054600181600116156101000203166002900490600052602060002090601f016020900481019282601f106100a357805160ff19168380011785556100d1565b828001600101855582156100d1579182015b828111156100d05782518255916020019190600101906100b5565b5b5090506100de91906100e2565b5090565b61010491905b808211156101005760008160009055506001016100e8565b5090565b90565b610327806101166000396000f3fe608060405234801561001057600080fd5b50600436106100365760003560e01c806319ff1d211461003b578063a3a5df9e146100be575b600080fd5b610043610191565b6040518080602001828103825283818151815260200191508051906020019080838360005b83811015610083578082015181840152602081019050610068565b50505050905090810190601f1680156100b05780820380516001836020036101000a031916815260200191505b509250505060405180910390f35b610177600480360360208110156100d457600080fd5b81019080803590602001906401000000008111156100f157600080fd5b82018360208201111561010357600080fd5b8035906020019184600183028401116401000000008311171561012557600080fd5b91908080601f016020809104026020016040519081016040528093929190818152602001838380828437600081840152601f19601f82011690508083019250505050505050919291929050505061022f565b604051808215151515815260200191505060405180910390f35b60008054600181600116156101000203166002900480601f0160208091040260200160405190810160405280929190818152602001828054600181600116156101000203166002900480156102275780601f106101fc57610100808354040283529160200191610227565b820191906000526020600020905b81548152906001019060200180831161020a57829003601f168201915b505050505081565b6000816000908051906020019061024792919061024d565b50919050565b828054600181600116156101000203166002900490600052602060002090601f016020900481019282601f1061028e57805160ff19168380011785556102bc565b828001600101855582156102bc579182015b828111156102bb5782518255916020019190600101906102a0565b5b5090506102c991906102cd565b5090565b6102ef91905b808211156102eb5760008160009055506001016102d3565b5090565b9056fea265627a7a723158205a1ee0fd20849fe8f0e1ab4cc5c0d28a5a21383c479b14aa2ebb9db68a5fa5ed64736f6c63430005100032",
  "source": "pragma solidity ^0.5.0;\n\ncontract CoinTrader{\n  string public hello = \"Hello guys\";\n\n  function SetNewString (string memory _newString) public returns (bool) {\n    hello = _newString;\n  }\n\n}",
  "sourcePath": "/home/anhtu/study/Blockchain/CryptoTrade/src/contracts/CoinTrader.sol",
  "compiler": {
    "name": "solc",
    "version": "0.5.16+commit.9c3226ce.Emscripten.clang"
  },
  "schemaVersion": "3.3.4",
  "updatedAt": "2021-04-25T04:14:54.862Z",
  "networkType": "ethereum",
  "devdoc": {
    "methods": {}
  },
  "userdoc": {
    "methods": {}
  }
}