{
  "contractName": "CoinTrader",
  "abi": [
    {
      "inputs": [
        {
          "internalType": "contract Token",
          "name": "_token",
          "type": "address"
        },
        {
          "internalType": "address payable",
          "name": "_admin",
          "type": "address"
        }
      ],
      "payable": false,
      "stateMutability": "nonpayable",
      "type": "constructor"
    },
    {
      "anonymous": false,
      "inputs": [
        {
          "indexed": true,
          "internalType": "address",
          "name": "_admin",
          "type": "address"
        },
        {
          "indexed": true,
          "internalType": "address",
          "name": "_contract",
          "type": "address"
        },
        {
          "indexed": false,
          "internalType": "uint256",
          "name": "_ethVal",
          "type": "uint256"
        },
        {
          "indexed": false,
          "internalType": "string",
          "name": "typeTransaction",
          "type": "string"
        }
      ],
      "name": "BookieTransaction",
      "type": "event"
    },
    {
      "anonymous": false,
      "inputs": [
        {
          "indexed": true,
          "internalType": "address",
          "name": "_from",
          "type": "address"
        },
        {
          "indexed": true,
          "internalType": "address",
          "name": "_to",
          "type": "address"
        },
        {
          "indexed": false,
          "internalType": "uint256",
          "name": "_value",
          "type": "uint256"
        },
        {
          "indexed": false,
          "internalType": "uint256",
          "name": "_ethValue",
          "type": "uint256"
        }
      ],
      "name": "TokenPurchases",
      "type": "event"
    },
    {
      "anonymous": false,
      "inputs": [
        {
          "indexed": true,
          "internalType": "address",
          "name": "_from",
          "type": "address"
        },
        {
          "indexed": true,
          "internalType": "address",
          "name": "_to",
          "type": "address"
        },
        {
          "indexed": false,
          "internalType": "uint256",
          "name": "_value",
          "type": "uint256"
        },
        {
          "indexed": false,
          "internalType": "uint256",
          "name": "_ethValue",
          "type": "uint256"
        }
      ],
      "name": "TokenSales",
      "type": "event"
    },
    {
      "constant": true,
      "inputs": [],
      "name": "name",
      "outputs": [
        {
          "internalType": "string",
          "name": "",
          "type": "string"
        }
      ],
      "payable": false,
      "stateMutability": "view",
      "type": "function"
    },
    {
      "constant": true,
      "inputs": [],
      "name": "rate",
      "outputs": [
        {
          "internalType": "uint256",
          "name": "",
          "type": "uint256"
        }
      ],
      "payable": false,
      "stateMutability": "view",
      "type": "function"
    },
    {
      "constant": true,
      "inputs": [],
      "name": "token",
      "outputs": [
        {
          "internalType": "contract Token",
          "name": "",
          "type": "address"
        }
      ],
      "payable": false,
      "stateMutability": "view",
      "type": "function"
    },
    {
      "constant": true,
      "inputs": [],
      "name": "adminInfo",
      "outputs": [
        {
          "internalType": "address",
          "name": "",
          "type": "address"
        }
      ],
      "payable": false,
      "stateMutability": "view",
      "type": "function"
    },
    {
      "constant": false,
      "inputs": [],
      "name": "purchase",
      "outputs": [],
      "payable": true,
      "stateMutability": "payable",
      "type": "function"
    },
    {
      "constant": false,
      "inputs": [
        {
          "internalType": "uint256",
          "name": "_amount",
          "type": "uint256"
        }
      ],
      "name": "sell",
      "outputs": [],
      "payable": false,
      "stateMutability": "nonpayable",
      "type": "function"
    },
    {
      "constant": false,
      "inputs": [],
      "name": "invest",
      "outputs": [],
      "payable": true,
      "stateMutability": "payable",
      "type": "function"
    },
    {
      "constant": false,
      "inputs": [
        {
          "internalType": "uint256",
          "name": "_amount",
          "type": "uint256"
        }
      ],
      "name": "withdraw",
      "outputs": [],
      "payable": false,
      "stateMutability": "nonpayable",
      "type": "function"
    }
  ],
  "bytecode": "0x60806040526040518060400160405280600b81526020017f436f696e207472616465720000000000000000000000000000000000000000008152506000908051906020019061004f929190610128565b50606460025534801561006157600080fd5b50604051610bee380380610bee8339818101604052604081101561008457600080fd5b81019080805190602001909291908051906020019092919050505081600160006101000a81548173ffffffffffffffffffffffffffffffffffffffff021916908373ffffffffffffffffffffffffffffffffffffffff16021790555080600360006101000a81548173ffffffffffffffffffffffffffffffffffffffff021916908373ffffffffffffffffffffffffffffffffffffffff16021790555050506101cd565b828054600181600116156101000203166002900490600052602060002090601f016020900481019282601f1061016957805160ff1916838001178555610197565b82800160010185558215610197579182015b8281111561019657825182559160200191906001019061017b565b5b5090506101a491906101a8565b5090565b6101ca91905b808211156101c65760008160009055506001016101ae565b5090565b90565b610a12806101dc6000396000f3fe60806040526004361061007b5760003560e01c806364edfbf01161004e57806364edfbf0146101cd578063e4849b32146101d7578063e8b5e51f14610212578063fc0c546a1461021c5761007b565b806306fdde0314610080578063283a893c146101105780632c4e722e146101675780632e1a7d4d14610192575b600080fd5b34801561008c57600080fd5b50610095610273565b6040518080602001828103825283818151815260200191508051906020019080838360005b838110156100d55780820151818401526020810190506100ba565b50505050905090810190601f1680156101025780820380516001836020036101000a031916815260200191505b509250505060405180910390f35b34801561011c57600080fd5b50610125610311565b604051808273ffffffffffffffffffffffffffffffffffffffff1673ffffffffffffffffffffffffffffffffffffffff16815260200191505060405180910390f35b34801561017357600080fd5b5061017c61033b565b6040518082815260200191505060405180910390f35b34801561019e57600080fd5b506101cb600480360360208110156101b557600080fd5b8101908080359060200190929190505050610341565b005b6101d5610414565b005b3480156101e357600080fd5b50610210600480360360208110156101fa57600080fd5b810190808035906020019092919050505061067c565b005b61021a610877565b005b34801561022857600080fd5b506102316109b7565b604051808273ffffffffffffffffffffffffffffffffffffffff1673ffffffffffffffffffffffffffffffffffffffff16815260200191505060405180910390f35b60008054600181600116156101000203166002900480601f0160208091040260200160405190810160405280929190818152602001828054600181600116156101000203166002900480156103095780601f106102de57610100808354040283529160200191610309565b820191906000526020600020905b8154815290600101906020018083116102ec57829003601f168201915b505050505081565b6000600360009054906101000a900473ffffffffffffffffffffffffffffffffffffffff16905090565b60025481565b600360009054906101000a900473ffffffffffffffffffffffffffffffffffffffff1673ffffffffffffffffffffffffffffffffffffffff163373ffffffffffffffffffffffffffffffffffffffff161461039b57600080fd5b804710156103a857600080fd5b600360009054906101000a900473ffffffffffffffffffffffffffffffffffffffff1673ffffffffffffffffffffffffffffffffffffffff166108fc829081150290604051600060405180830381858888f19350505050158015610410573d6000803e3d6000fd5b5050565b60006002543402905080600160009054906101000a900473ffffffffffffffffffffffffffffffffffffffff1673ffffffffffffffffffffffffffffffffffffffff166370a08231306040518263ffffffff1660e01b8152600401808273ffffffffffffffffffffffffffffffffffffffff1673ffffffffffffffffffffffffffffffffffffffff16815260200191505060206040518083038186803b1580156104bd57600080fd5b505afa1580156104d1573d6000803e3d6000fd5b505050506040513d60208110156104e757600080fd5b8101908080519060200190929190505050101561050357600080fd5b343373ffffffffffffffffffffffffffffffffffffffff1631101561052757600080fd5b3073ffffffffffffffffffffffffffffffffffffffff163373ffffffffffffffffffffffffffffffffffffffff167f92ad65bf3517bc6c7e20bd18f375d3b0f6b6cad26f607eaab73351dbdd3cac418334604051808381526020018281526020019250505060405180910390a3600160009054906101000a900473ffffffffffffffffffffffffffffffffffffffff1673ffffffffffffffffffffffffffffffffffffffff1663a9059cbb33836040518363ffffffff1660e01b8152600401808373ffffffffffffffffffffffffffffffffffffffff1673ffffffffffffffffffffffffffffffffffffffff16815260200182815260200192505050602060405180830381600087803b15801561063d57600080fd5b505af1158015610651573d6000803e3d6000fd5b505050506040513d602081101561066757600080fd5b81019080805190602001909291905050505050565b6000600254828161068957fe5b0490508047101561069957600080fd5b804710156106a657600080fd5b3073ffffffffffffffffffffffffffffffffffffffff163373ffffffffffffffffffffffffffffffffffffffff167fc9e8e18003b208bc4755f69b6c95d29da92feaf746002969ad661d88dc248f558484604051808381526020018281526020019250505060405180910390a3600160009054906101000a900473ffffffffffffffffffffffffffffffffffffffff1673ffffffffffffffffffffffffffffffffffffffff166323b872dd3330856040518463ffffffff1660e01b8152600401808473ffffffffffffffffffffffffffffffffffffffff1673ffffffffffffffffffffffffffffffffffffffff1681526020018373ffffffffffffffffffffffffffffffffffffffff1673ffffffffffffffffffffffffffffffffffffffff1681526020018281526020019350505050602060405180830381600087803b1580156107f057600080fd5b505af1158015610804573d6000803e3d6000fd5b505050506040513d602081101561081a57600080fd5b8101908080519060200190929190505050503373ffffffffffffffffffffffffffffffffffffffff166108fc829081150290604051600060405180830381858888f19350505050158015610872573d6000803e3d6000fd5b505050565b600360009054906101000a900473ffffffffffffffffffffffffffffffffffffffff1673ffffffffffffffffffffffffffffffffffffffff163373ffffffffffffffffffffffffffffffffffffffff16146108d157600080fd5b343373ffffffffffffffffffffffffffffffffffffffff163110156108f557600080fd5b3073ffffffffffffffffffffffffffffffffffffffff16600360009054906101000a900473ffffffffffffffffffffffffffffffffffffffff1673ffffffffffffffffffffffffffffffffffffffff167f6d67e1571f4663924ed3f63f5d4b40bfab7d7f8aa87ba41ca29be818b89b7d653460405180828152602001806020018281038252600a8152602001807f496e766573746d656e74000000000000000000000000000000000000000000008152506020019250505060405180910390a3565b600160009054906101000a900473ffffffffffffffffffffffffffffffffffffffff168156fea265627a7a723158206cb92c2e6587bef6a010db3b1216277f66293877c0766258b8b403a2f132a48964736f6c63430005100032",
  "source": "pragma solidity ^0.5.0;\n\nimport \"./Token.sol\";\n\ncontract CoinTrader{\n  string public name = \"Coin trader\";\n  Token public token;\n  uint public rate = 100;\n  address payable admin;\n\n\n  // events\n  event TokenPurchases(\n    address indexed _from,\n    address indexed _to,\n    uint256 _value,\n    uint256 _ethValue\n  );\n  event TokenSales(\n    address indexed _from,\n    address indexed _to,\n    uint256 _value,\n    uint256 _ethValue\n  );\n  event BookieTransaction(\n    address indexed _admin,\n    address indexed _contract,\n    uint256 _ethVal,\n    string typeTransaction\n  );\n\n  constructor (Token _token, address payable _admin) public {\n    token = _token;\n    admin = _admin;\n  }\n\n  function adminInfo () public view returns (address){\n    return admin;\n  }\n\n  function purchase () public payable {\n\n    // calculate value\n    uint amount = msg.value * rate;\n\n    //check bookie have enought tokens or not\n    require(token.balanceOf(address(this)) >= amount);\n    //check seller have enough ether to buy\n    require(msg.sender.balance >= msg.value);\n\n    emit TokenPurchases(msg.sender, address(this), amount, msg.value);\n    // transfer\n    token.transfer(msg.sender, amount);\n  }\n\n  function sell (uint _amount) public {\n    // calculate value\n    uint etherAmount = _amount / rate;\n\n    //check bookie have enough tokens or not\n    require((address(this).balance) >= etherAmount);\n    //check seller have enough tokens to sell\n    require((address(this).balance) >= etherAmount);\n\n    emit TokenSales(msg.sender, address(this), _amount, etherAmount);\n    // transfer\n    token.transferFrom(msg.sender, address(this), _amount);\n    msg.sender.transfer(etherAmount);\n  }\n\n  function invest() public payable {\n\n    // check bookie call this function or not\n    require(msg.sender == admin);\n    // check bookie have no financial problem\n    require(msg.sender.balance >= msg.value);\n\n    emit BookieTransaction(admin, address(this), msg.value, \"Investment\");\n  }\n\n  function withdraw(uint256 _amount) public {\n\n    // check bookie call this function or not\n    require(msg.sender == admin);\n    // check deployed contract has enough eth\n    require(address(this).balance >= _amount);\n\n    admin.transfer(_amount);\n\n  }\n\n}",
  "sourcePath": "/home/anhtu/study/Blockchain/CryptoTrade/src/contracts/CoinTrader.sol",
  "compiler": {
    "name": "solc",
    "version": "0.5.16+commit.9c3226ce.Emscripten.clang"
  },
  "schemaVersion": "3.3.4",
  "updatedAt": "2021-04-30T12:57:46.807Z",
  "networkType": "ethereum",
  "devdoc": {
    "methods": {}
  },
  "userdoc": {
    "methods": {}
  }
}