{
  "contractName": "CoinTrader",
  "abi": [
    {
      "inputs": [
        {
          "internalType": "contract Token",
          "name": "_token",
          "type": "address"
        },
        {
          "internalType": "address payable",
          "name": "_admin",
          "type": "address"
        }
      ],
      "payable": false,
      "stateMutability": "nonpayable",
      "type": "constructor"
    },
    {
      "anonymous": false,
      "inputs": [
        {
          "indexed": true,
          "internalType": "address",
          "name": "_player",
          "type": "address"
        },
        {
          "indexed": false,
          "internalType": "uint256",
          "name": "_tokenVal",
          "type": "uint256"
        }
      ],
      "name": "Bet",
      "type": "event"
    },
    {
      "anonymous": false,
      "inputs": [
        {
          "indexed": true,
          "internalType": "address",
          "name": "_admin",
          "type": "address"
        },
        {
          "indexed": true,
          "internalType": "address",
          "name": "_contract",
          "type": "address"
        },
        {
          "indexed": false,
          "internalType": "uint256",
          "name": "_ethVal",
          "type": "uint256"
        },
        {
          "indexed": false,
          "internalType": "string",
          "name": "typeTransaction",
          "type": "string"
        }
      ],
      "name": "BookieTransaction",
      "type": "event"
    },
    {
      "anonymous": false,
      "inputs": [
        {
          "indexed": true,
          "internalType": "address",
          "name": "_from",
          "type": "address"
        },
        {
          "indexed": true,
          "internalType": "address",
          "name": "_to",
          "type": "address"
        },
        {
          "indexed": false,
          "internalType": "uint256",
          "name": "_value",
          "type": "uint256"
        },
        {
          "indexed": false,
          "internalType": "uint256",
          "name": "_ethValue",
          "type": "uint256"
        }
      ],
      "name": "TokenPurchases",
      "type": "event"
    },
    {
      "anonymous": false,
      "inputs": [
        {
          "indexed": true,
          "internalType": "address",
          "name": "_from",
          "type": "address"
        },
        {
          "indexed": true,
          "internalType": "address",
          "name": "_to",
          "type": "address"
        },
        {
          "indexed": false,
          "internalType": "uint256",
          "name": "_value",
          "type": "uint256"
        },
        {
          "indexed": false,
          "internalType": "uint256",
          "name": "_ethValue",
          "type": "uint256"
        }
      ],
      "name": "TokenSales",
      "type": "event"
    },
    {
      "anonymous": false,
      "inputs": [
        {
          "indexed": true,
          "internalType": "address",
          "name": "_player",
          "type": "address"
        },
        {
          "indexed": false,
          "internalType": "uint256",
          "name": "_tokenVal",
          "type": "uint256"
        }
      ],
      "name": "Win",
      "type": "event"
    },
    {
      "constant": true,
      "inputs": [],
      "name": "name",
      "outputs": [
        {
          "internalType": "string",
          "name": "",
          "type": "string"
        }
      ],
      "payable": false,
      "stateMutability": "view",
      "type": "function"
    },
    {
      "constant": true,
      "inputs": [],
      "name": "rate",
      "outputs": [
        {
          "internalType": "uint256",
          "name": "",
          "type": "uint256"
        }
      ],
      "payable": false,
      "stateMutability": "view",
      "type": "function"
    },
    {
      "constant": true,
      "inputs": [],
      "name": "token",
      "outputs": [
        {
          "internalType": "contract Token",
          "name": "",
          "type": "address"
        }
      ],
      "payable": false,
      "stateMutability": "view",
      "type": "function"
    },
    {
      "constant": true,
      "inputs": [],
      "name": "adminInfo",
      "outputs": [
        {
          "internalType": "address",
          "name": "",
          "type": "address"
        }
      ],
      "payable": false,
      "stateMutability": "view",
      "type": "function"
    },
    {
      "constant": false,
      "inputs": [],
      "name": "purchase",
      "outputs": [],
      "payable": true,
      "stateMutability": "payable",
      "type": "function"
    },
    {
      "constant": false,
      "inputs": [
        {
          "internalType": "uint256",
          "name": "_amount",
          "type": "uint256"
        }
      ],
      "name": "sell",
      "outputs": [],
      "payable": false,
      "stateMutability": "nonpayable",
      "type": "function"
    },
    {
      "constant": false,
      "inputs": [],
      "name": "invest",
      "outputs": [],
      "payable": true,
      "stateMutability": "payable",
      "type": "function"
    },
    {
      "constant": false,
      "inputs": [
        {
          "internalType": "uint256",
          "name": "_amount",
          "type": "uint256"
        }
      ],
      "name": "withdraw",
      "outputs": [],
      "payable": false,
      "stateMutability": "nonpayable",
      "type": "function"
    },
    {
      "constant": false,
      "inputs": [
        {
          "internalType": "uint256",
          "name": "_amount",
          "type": "uint256"
        },
        {
          "internalType": "address",
          "name": "_player",
          "type": "address"
        }
      ],
      "name": "winPrize",
      "outputs": [],
      "payable": false,
      "stateMutability": "nonpayable",
      "type": "function"
    },
    {
      "constant": false,
      "inputs": [
        {
          "internalType": "uint256",
          "name": "_amount",
          "type": "uint256"
        },
        {
          "internalType": "address",
          "name": "_player",
          "type": "address"
        }
      ],
      "name": "bet",
      "outputs": [],
      "payable": false,
      "stateMutability": "nonpayable",
      "type": "function"
    }
  ],
  "bytecode": "0x60806040526040518060400160405280600b81526020017f436f696e2074726164657200000000000000000000000000000000000000000081525060009080519060200190620000519291906200012f565b5060646002553480156200006457600080fd5b50604051620012d3380380620012d3833981810160405260408110156200008a57600080fd5b81019080805190602001909291908051906020019092919050505081600160006101000a81548173ffffffffffffffffffffffffffffffffffffffff021916908373ffffffffffffffffffffffffffffffffffffffff16021790555080600360006101000a81548173ffffffffffffffffffffffffffffffffffffffff021916908373ffffffffffffffffffffffffffffffffffffffff1602179055505050620001de565b828054600181600116156101000203166002900490600052602060002090601f016020900481019282601f106200017257805160ff1916838001178555620001a3565b82800160010185558215620001a3579182015b82811115620001a257825182559160200191906001019062000185565b5b509050620001b29190620001b6565b5090565b620001db91905b80821115620001d7576000816000905550600101620001bd565b5090565b90565b6110e580620001ee6000396000f3fe6080604052600436106100915760003560e01c806364edfbf01161005957806364edfbf01461023e578063b474d95d14610248578063e4849b32146102a3578063e8b5e51f146102de578063fc0c546a146102e857610091565b806306fdde0314610096578063283a893c146101265780632c4e722e1461017d5780632e1a7d4d146101a85780635f9b71ce146101e3575b600080fd5b3480156100a257600080fd5b506100ab61033f565b6040518080602001828103825283818151815260200191508051906020019080838360005b838110156100eb5780820151818401526020810190506100d0565b50505050905090810190601f1680156101185780820380516001836020036101000a031916815260200191505b509250505060405180910390f35b34801561013257600080fd5b5061013b6103dd565b604051808273ffffffffffffffffffffffffffffffffffffffff1673ffffffffffffffffffffffffffffffffffffffff16815260200191505060405180910390f35b34801561018957600080fd5b50610192610407565b6040518082815260200191505060405180910390f35b3480156101b457600080fd5b506101e1600480360360208110156101cb57600080fd5b810190808035906020019092919050505061040d565b005b3480156101ef57600080fd5b5061023c6004803603604081101561020657600080fd5b8101908080359060200190929190803573ffffffffffffffffffffffffffffffffffffffff1690602001909291905050506105a0565b005b6102466107f1565b005b34801561025457600080fd5b506102a16004803603604081101561026b57600080fd5b8101908080359060200190929190803573ffffffffffffffffffffffffffffffffffffffff169060200190929190505050610a59565b005b3480156102af57600080fd5b506102dc600480360360208110156102c657600080fd5b8101908080359060200190929190505050610c76565b005b6102e6610f4a565b005b3480156102f457600080fd5b506102fd61108a565b604051808273ffffffffffffffffffffffffffffffffffffffff1673ffffffffffffffffffffffffffffffffffffffff16815260200191505060405180910390f35b60008054600181600116156101000203166002900480601f0160208091040260200160405190810160405280929190818152602001828054600181600116156101000203166002900480156103d55780601f106103aa576101008083540402835291602001916103d5565b820191906000526020600020905b8154815290600101906020018083116103b857829003601f168201915b505050505081565b6000600360009054906101000a900473ffffffffffffffffffffffffffffffffffffffff16905090565b60025481565b600360009054906101000a900473ffffffffffffffffffffffffffffffffffffffff1673ffffffffffffffffffffffffffffffffffffffff163373ffffffffffffffffffffffffffffffffffffffff161461046757600080fd5b8047101561047457600080fd5b3073ffffffffffffffffffffffffffffffffffffffff16600360009054906101000a900473ffffffffffffffffffffffffffffffffffffffff1673ffffffffffffffffffffffffffffffffffffffff167f6d67e1571f4663924ed3f63f5d4b40bfab7d7f8aa87ba41ca29be818b89b7d65836040518082815260200180602001828103825260088152602001807f57697468647261770000000000000000000000000000000000000000000000008152506020019250505060405180910390a3600360009054906101000a900473ffffffffffffffffffffffffffffffffffffffff1673ffffffffffffffffffffffffffffffffffffffff166108fc829081150290604051600060405180830381858888f1935050505015801561059c573d6000803e3d6000fd5b5050565b81600160009054906101000a900473ffffffffffffffffffffffffffffffffffffffff1673ffffffffffffffffffffffffffffffffffffffff166370a08231836040518263ffffffff1660e01b8152600401808273ffffffffffffffffffffffffffffffffffffffff1673ffffffffffffffffffffffffffffffffffffffff16815260200191505060206040518083038186803b15801561064057600080fd5b505afa158015610654573d6000803e3d6000fd5b505050506040513d602081101561066a57600080fd5b8101908080519060200190929190505050101561068657600080fd5b8073ffffffffffffffffffffffffffffffffffffffff167fc0ae20ffbb1eca06a840c35912bdb9f8e6e1fad1f028c875be0ddf54d480d71e836040518082815260200191505060405180910390a2600160009054906101000a900473ffffffffffffffffffffffffffffffffffffffff1673ffffffffffffffffffffffffffffffffffffffff166323b872dd8230856040518463ffffffff1660e01b8152600401808473ffffffffffffffffffffffffffffffffffffffff1673ffffffffffffffffffffffffffffffffffffffff1681526020018373ffffffffffffffffffffffffffffffffffffffff1673ffffffffffffffffffffffffffffffffffffffff1681526020018281526020019350505050602060405180830381600087803b1580156107b157600080fd5b505af11580156107c5573d6000803e3d6000fd5b505050506040513d60208110156107db57600080fd5b8101908080519060200190929190505050505050565b60006002543402905080600160009054906101000a900473ffffffffffffffffffffffffffffffffffffffff1673ffffffffffffffffffffffffffffffffffffffff166370a08231306040518263ffffffff1660e01b8152600401808273ffffffffffffffffffffffffffffffffffffffff1673ffffffffffffffffffffffffffffffffffffffff16815260200191505060206040518083038186803b15801561089a57600080fd5b505afa1580156108ae573d6000803e3d6000fd5b505050506040513d60208110156108c457600080fd5b810190808051906020019092919050505010156108e057600080fd5b343373ffffffffffffffffffffffffffffffffffffffff1631101561090457600080fd5b3073ffffffffffffffffffffffffffffffffffffffff163373ffffffffffffffffffffffffffffffffffffffff167f92ad65bf3517bc6c7e20bd18f375d3b0f6b6cad26f607eaab73351dbdd3cac418334604051808381526020018281526020019250505060405180910390a3600160009054906101000a900473ffffffffffffffffffffffffffffffffffffffff1673ffffffffffffffffffffffffffffffffffffffff1663a9059cbb33836040518363ffffffff1660e01b8152600401808373ffffffffffffffffffffffffffffffffffffffff1673ffffffffffffffffffffffffffffffffffffffff16815260200182815260200192505050602060405180830381600087803b158015610a1a57600080fd5b505af1158015610a2e573d6000803e3d6000fd5b505050506040513d6020811015610a4457600080fd5b81019080805190602001909291905050505050565b81600160009054906101000a900473ffffffffffffffffffffffffffffffffffffffff1673ffffffffffffffffffffffffffffffffffffffff166370a08231306040518263ffffffff1660e01b8152600401808273ffffffffffffffffffffffffffffffffffffffff1673ffffffffffffffffffffffffffffffffffffffff16815260200191505060206040518083038186803b158015610af957600080fd5b505afa158015610b0d573d6000803e3d6000fd5b505050506040513d6020811015610b2357600080fd5b81019080805190602001909291905050501015610b3f57600080fd5b8073ffffffffffffffffffffffffffffffffffffffff167f6747c18256028de8cd2fa276e75d6b4193ac34c1b55fa8e71797ac132d32ad39836040518082815260200191505060405180910390a2600160009054906101000a900473ffffffffffffffffffffffffffffffffffffffff1673ffffffffffffffffffffffffffffffffffffffff1663a9059cbb82846040518363ffffffff1660e01b8152600401808373ffffffffffffffffffffffffffffffffffffffff1673ffffffffffffffffffffffffffffffffffffffff16815260200182815260200192505050602060405180830381600087803b158015610c3657600080fd5b505af1158015610c4a573d6000803e3d6000fd5b505050506040513d6020811015610c6057600080fd5b8101908080519060200190929190505050505050565b60006002548281610c8357fe5b04905080471015610c9357600080fd5b81600160009054906101000a900473ffffffffffffffffffffffffffffffffffffffff1673ffffffffffffffffffffffffffffffffffffffff166370a08231336040518263ffffffff1660e01b8152600401808273ffffffffffffffffffffffffffffffffffffffff1673ffffffffffffffffffffffffffffffffffffffff16815260200191505060206040518083038186803b158015610d3357600080fd5b505afa158015610d47573d6000803e3d6000fd5b505050506040513d6020811015610d5d57600080fd5b81019080805190602001909291905050501015610d7957600080fd5b3073ffffffffffffffffffffffffffffffffffffffff163373ffffffffffffffffffffffffffffffffffffffff167fc9e8e18003b208bc4755f69b6c95d29da92feaf746002969ad661d88dc248f558484604051808381526020018281526020019250505060405180910390a3600160009054906101000a900473ffffffffffffffffffffffffffffffffffffffff1673ffffffffffffffffffffffffffffffffffffffff166323b872dd3330856040518463ffffffff1660e01b8152600401808473ffffffffffffffffffffffffffffffffffffffff1673ffffffffffffffffffffffffffffffffffffffff1681526020018373ffffffffffffffffffffffffffffffffffffffff1673ffffffffffffffffffffffffffffffffffffffff1681526020018281526020019350505050602060405180830381600087803b158015610ec357600080fd5b505af1158015610ed7573d6000803e3d6000fd5b505050506040513d6020811015610eed57600080fd5b8101908080519060200190929190505050503373ffffffffffffffffffffffffffffffffffffffff166108fc829081150290604051600060405180830381858888f19350505050158015610f45573d6000803e3d6000fd5b505050565b600360009054906101000a900473ffffffffffffffffffffffffffffffffffffffff1673ffffffffffffffffffffffffffffffffffffffff163373ffffffffffffffffffffffffffffffffffffffff1614610fa457600080fd5b343373ffffffffffffffffffffffffffffffffffffffff16311015610fc857600080fd5b3073ffffffffffffffffffffffffffffffffffffffff16600360009054906101000a900473ffffffffffffffffffffffffffffffffffffffff1673ffffffffffffffffffffffffffffffffffffffff167f6d67e1571f4663924ed3f63f5d4b40bfab7d7f8aa87ba41ca29be818b89b7d653460405180828152602001806020018281038252600a8152602001807f496e766573746d656e74000000000000000000000000000000000000000000008152506020019250505060405180910390a3565b600160009054906101000a900473ffffffffffffffffffffffffffffffffffffffff168156fea265627a7a72315820d1b3c5717fc830b83add9d17f6b4c1e012090eacf057ceb29e9c92b5e950ec5a64736f6c63430005100032",
  "source": "pragma solidity ^0.5.0;\n\nimport \"./Token.sol\";\n\ncontract CoinTrader{\n  string public name = \"Coin trader\";\n  Token public token;\n  uint public rate = 100;\n  address payable admin;\n\n\n  // events\n  event TokenPurchases(\n    address indexed _from,\n    address indexed _to,\n    uint256 _value,\n    uint256 _ethValue\n  );\n  event TokenSales(\n    address indexed _from,\n    address indexed _to,\n    uint256 _value,\n    uint256 _ethValue\n  );\n  event BookieTransaction(\n    address indexed _admin,\n    address indexed _contract,\n    uint256 _ethVal,\n    string typeTransaction\n  );\n  event Win(\n    address indexed _player,\n    uint256 _tokenVal\n  );\n  event Bet(\n    address indexed _player,\n    uint256 _tokenVal\n  );\n\n  constructor (Token _token, address payable _admin) public {\n    token = _token;\n    admin = _admin;\n  }\n\n  function adminInfo () public view returns (address){\n    return admin;\n  }\n\n  function purchase () public payable {\n\n    // calculate value\n    uint amount = msg.value * rate;\n\n    //check bookie have enought tokens or not\n    require(token.balanceOf(address(this)) >= amount);\n    //check seller have enough ether to buy\n    require(msg.sender.balance >= msg.value);\n\n    emit TokenPurchases(msg.sender, address(this), amount, msg.value);\n    // transfer\n    token.transfer(msg.sender, amount);\n  }\n\n  function sell (uint _amount) public {\n    // calculate value\n    uint etherAmount = _amount / rate;\n\n    //check bookie have enough tokens or not\n    require((address(this).balance) >= etherAmount);\n    //check seller have enough tokens to sell\n    require(token.balanceOf(msg.sender) >= _amount);\n\n    emit TokenSales(msg.sender, address(this), _amount, etherAmount);\n    // transfer\n    token.transferFrom(msg.sender, address(this), _amount);\n    msg.sender.transfer(etherAmount);\n  }\n\n  function invest() public payable {\n\n    // check bookie call this function or not\n    require(msg.sender == admin);\n    // check bookie have no financial problem\n    require(msg.sender.balance >= msg.value);\n\n    emit BookieTransaction(admin, address(this), msg.value, \"Investment\");\n  }\n\n  function withdraw(uint256 _amount) public {\n\n    // check bookie call this function or not\n    require(msg.sender == admin);\n    // check deployed contract has enough eth\n    require(address(this).balance >= _amount);\n\n    emit BookieTransaction(admin, address(this), _amount, \"Withdraw\");\n    admin.transfer(_amount);\n\n  }\n\n  function winPrize(uint256 _amount, address _player) public {\n\n    //check bookie have enought tokens or not\n    require(token.balanceOf(address(this)) >= _amount);\n\n    // transfer\n    emit Win(_player, _amount);\n    token.transfer(_player, _amount);\n  }\n\n  function bet(uint256 _amount, address _player) public {\n\n    //check player have enought tokens or not\n    require(token.balanceOf(_player) >= _amount);\n\n    // transfer\n    emit Bet(_player, _amount);\n    token.transferFrom(_player, address(this), _amount);\n  }\n\n}",
  "sourcePath": "/home/anhtu/study/Blockchain/CryptoTrade/src/contracts/CoinTrader.sol",
  "compiler": {
    "name": "solc",
    "version": "0.5.16+commit.9c3226ce.Emscripten.clang"
  },
  "schemaVersion": "3.3.4",
  "updatedAt": "2021-05-13T02:10:02.173Z",
  "networkType": "ethereum",
  "devdoc": {
    "methods": {}
  },
  "userdoc": {
    "methods": {}
  }
}